{
  "_format": "hh-sol-artifact-1",
  "contractName": "GameRanking",
  "sourceName": "contracts/GameRanking.sol",
  "abi": [
    {
      "inputs": [],
      "stateMutability": "nonpayable",
      "type": "constructor"
    },
    {
      "anonymous": false,
      "inputs": [
        {
          "indexed": true,
          "internalType": "address",
          "name": "from",
          "type": "address"
        },
        {
          "indexed": false,
          "internalType": "uint256",
          "name": "timestamp",
          "type": "uint256"
        },
        {
          "indexed": false,
          "internalType": "uint256",
          "name": "points",
          "type": "uint256"
        },
        {
          "indexed": false,
          "internalType": "string",
          "name": "name",
          "type": "string"
        }
      ],
      "name": "NewScore",
      "type": "event"
    },
    {
      "inputs": [],
      "name": "getAllScores",
      "outputs": [
        {
          "components": [
            {
              "internalType": "address",
              "name": "from",
              "type": "address"
            },
            {
              "internalType": "uint256",
              "name": "datetime",
              "type": "uint256"
            },
            {
              "internalType": "uint256",
              "name": "points",
              "type": "uint256"
            },
            {
              "internalType": "string",
              "name": "name",
              "type": "string"
            }
          ],
          "internalType": "struct GameRanking.Score[]",
          "name": "",
          "type": "tuple[]"
        }
      ],
      "stateMutability": "view",
      "type": "function"
    },
    {
      "inputs": [],
      "name": "getTotalMessages",
      "outputs": [
        {
          "internalType": "uint256",
          "name": "",
          "type": "uint256"
        }
      ],
      "stateMutability": "view",
      "type": "function"
    },
    {
      "inputs": [
        {
          "internalType": "uint256",
          "name": "_points",
          "type": "uint256"
        },
        {
          "internalType": "string",
          "name": "_name",
          "type": "string"
        }
      ],
      "name": "saveScore",
      "outputs": [],
      "stateMutability": "nonpayable",
      "type": "function"
    }
  ],
  "bytecode": "0x60806040523480156200001157600080fd5b506200005d6040518060400160405280600581526020017f59617979790000000000000000000000000000000000000000000000000000008152506200006360201b620004e21760201c565b620001f7565b62000103816040516024016200007a919062000170565b6040516020818303038152906040527f41304fac000000000000000000000000000000000000000000000000000000007bffffffffffffffffffffffffffffffffffffffffffffffffffffffff19166020820180517bffffffffffffffffffffffffffffffffffffffffffffffffffffffff83818316178352505050506200010660201b60201c565b50565b60008151905060006a636f6e736f6c652e6c6f679050602083016000808483855afa5050505050565b60006200013c8262000194565b6200014881856200019f565b93506200015a818560208601620001b0565b6200016581620001e6565b840191505092915050565b600060208201905081810360008301526200018c81846200012f565b905092915050565b600081519050919050565b600082825260208201905092915050565b60005b83811015620001d0578082015181840152602081019050620001b3565b83811115620001e0576000848401525b50505050565b6000601f19601f8301169050919050565b610ea280620002076000396000f3fe608060405234801561001057600080fd5b50600436106100415760003560e01c8063147e910814610046578063864949b21461006457806387d0619614610080575b600080fd5b61004e61009e565b60405161005b9190610b6b565b60405180910390f35b61007e6004803603810190610079919061089b565b6100e9565b005b610088610387565b6040516100959190610a89565b60405180910390f35b60006100e16040518060400160405280601a81526020017f5765206861766520256420746f74616c206d657373616765732100000000000081525060005461057b565b600054905090565b6101286040518060400160405280601581526020017f2573206861732066696e69736865642067616d6521000000000000000000000081525033610617565b600160405180608001604052803373ffffffffffffffffffffffffffffffffffffffff16815260200142815260200184815260200183815250908060018154018082558091505060019003906000526020600020906004020160009091909190915060008201518160000160006101000a81548173ffffffffffffffffffffffffffffffffffffffff021916908373ffffffffffffffffffffffffffffffffffffffff1602179055506020820151816001015560408201518160020155606082015181600301908051906020019061020192919061077b565b50505060016000808282546102169190610c80565b925050819055506001600260003373ffffffffffffffffffffffffffffffffffffffff1673ffffffffffffffffffffffffffffffffffffffff168152602001908152602001600020600082825461026d9190610c80565b925050819055506102f36040518060400160405280601e81526020017f4e756d626572206f662073636f72657320666f72202561203a2025732020000081525033600260003373ffffffffffffffffffffffffffffffffffffffff1673ffffffffffffffffffffffffffffffffffffffff168152602001908152602001600020546106b3565b3373ffffffffffffffffffffffffffffffffffffffff167f0f1d512ad87cdfe649de0aef61e72b5e6e2bd1ea9d17feef66d90b1d8f04bf0342848460405161033d93929190610b86565b60405180910390a26103836040518060400160405280601381526020017f416c6c4d657373616765732075706461746564000000000000000000000000008152506104e2565b5050565b60606001805480602002602001604051908101604052809291908181526020016000905b828210156104d957838290600052602060002090600402016040518060800160405290816000820160009054906101000a900473ffffffffffffffffffffffffffffffffffffffff1673ffffffffffffffffffffffffffffffffffffffff1673ffffffffffffffffffffffffffffffffffffffff168152602001600182015481526020016002820154815260200160038201805461044890610d54565b80601f016020809104026020016040519081016040528092919081815260200182805461047490610d54565b80156104c15780601f10610496576101008083540402835291602001916104c1565b820191906000526020600020905b8154815290600101906020018083116104a457829003601f168201915b505050505081525050815260200190600101906103ab565b50505050905090565b610578816040516024016104f69190610aab565b6040516020818303038152906040527f41304fac000000000000000000000000000000000000000000000000000000007bffffffffffffffffffffffffffffffffffffffffffffffffffffffff19166020820180517bffffffffffffffffffffffffffffffffffffffffffffffffffffffff8381831617835250505050610752565b50565b6106138282604051602401610591929190610b3b565b6040516020818303038152906040527f9710a9d0000000000000000000000000000000000000000000000000000000007bffffffffffffffffffffffffffffffffffffffffffffffffffffffff19166020820180517bffffffffffffffffffffffffffffffffffffffffffffffffffffffff8381831617835250505050610752565b5050565b6106af828260405160240161062d929190610acd565b6040516020818303038152906040527f319af333000000000000000000000000000000000000000000000000000000007bffffffffffffffffffffffffffffffffffffffffffffffffffffffff19166020820180517bffffffffffffffffffffffffffffffffffffffffffffffffffffffff8381831617835250505050610752565b5050565b61074d8383836040516024016106cb93929190610afd565b6040516020818303038152906040527f07c81217000000000000000000000000000000000000000000000000000000007bffffffffffffffffffffffffffffffffffffffffffffffffffffffff19166020820180517bffffffffffffffffffffffffffffffffffffffffffffffffffffffff8381831617835250505050610752565b505050565b60008151905060006a636f6e736f6c652e6c6f679050602083016000808483855afa5050505050565b82805461078790610d54565b90600052602060002090601f0160209004810192826107a957600085556107f0565b82601f106107c257805160ff19168380011785556107f0565b828001600101855582156107f0579182015b828111156107ef5782518255916020019190600101906107d4565b5b5090506107fd9190610801565b5090565b5b8082111561081a576000816000905550600101610802565b5090565b600061083161082c84610be9565b610bc4565b90508281526020810184848401111561084957600080fd5b610854848285610d12565b509392505050565b600082601f83011261086d57600080fd5b813561087d84826020860161081e565b91505092915050565b60008135905061089581610e55565b92915050565b600080604083850312156108ae57600080fd5b60006108bc85828601610886565b925050602083013567ffffffffffffffff8111156108d957600080fd5b6108e58582860161085c565b9150509250929050565b60006108fb8383610a08565b905092915050565b61090c81610cd6565b82525050565b61091b81610cd6565b82525050565b600061092c82610c2a565b6109368185610c4d565b93508360208202850161094885610c1a565b8060005b85811015610984578484038952815161096585826108ef565b945061097083610c40565b925060208a0199505060018101905061094c565b50829750879550505050505092915050565b60006109a182610c35565b6109ab8185610c5e565b93506109bb818560208601610d21565b6109c481610e44565b840191505092915050565b60006109da82610c35565b6109e48185610c6f565b93506109f4818560208601610d21565b6109fd81610e44565b840191505092915050565b6000608083016000830151610a206000860182610903565b506020830151610a336020860182610a6b565b506040830151610a466040860182610a6b565b5060608301518482036060860152610a5e8282610996565b9150508091505092915050565b610a7481610d08565b82525050565b610a8381610d08565b82525050565b60006020820190508181036000830152610aa38184610921565b905092915050565b60006020820190508181036000830152610ac581846109cf565b905092915050565b60006040820190508181036000830152610ae781856109cf565b9050610af66020830184610912565b9392505050565b60006060820190508181036000830152610b1781866109cf565b9050610b266020830185610912565b610b336040830184610a7a565b949350505050565b60006040820190508181036000830152610b5581856109cf565b9050610b646020830184610a7a565b9392505050565b6000602082019050610b806000830184610a7a565b92915050565b6000606082019050610b9b6000830186610a7a565b610ba86020830185610a7a565b8181036040830152610bba81846109cf565b9050949350505050565b6000610bce610bdf565b9050610bda8282610d86565b919050565b6000604051905090565b600067ffffffffffffffff821115610c0457610c03610e15565b5b610c0d82610e44565b9050602081019050919050565b6000819050602082019050919050565b600081519050919050565b600081519050919050565b6000602082019050919050565b600082825260208201905092915050565b600082825260208201905092915050565b600082825260208201905092915050565b6000610c8b82610d08565b9150610c9683610d08565b9250827fffffffffffffffffffffffffffffffffffffffffffffffffffffffffffffffff03821115610ccb57610cca610db7565b5b828201905092915050565b6000610ce182610ce8565b9050919050565b600073ffffffffffffffffffffffffffffffffffffffff82169050919050565b6000819050919050565b82818337600083830152505050565b60005b83811015610d3f578082015181840152602081019050610d24565b83811115610d4e576000848401525b50505050565b60006002820490506001821680610d6c57607f821691505b60208210811415610d8057610d7f610de6565b5b50919050565b610d8f82610e44565b810181811067ffffffffffffffff82111715610dae57610dad610e15565b5b80604052505050565b7f4e487b7100000000000000000000000000000000000000000000000000000000600052601160045260246000fd5b7f4e487b7100000000000000000000000000000000000000000000000000000000600052602260045260246000fd5b7f4e487b7100000000000000000000000000000000000000000000000000000000600052604160045260246000fd5b6000601f19601f8301169050919050565b610e5e81610d08565b8114610e6957600080fd5b5056fea2646970667358221220deb1067a7c315650b580cc133565d740760ff778624ffaec51b7f263be4d862d64736f6c63430008040033",
  "linkReferences": {},
  "deployedLinkReferences": {}
}