{
	"_format": "hh-sol-artifact-1",
	"contractName": "GameRanking",
	"sourceName": "contracts/GameRanking.sol",
	"abi": [
		{
			"inputs": [],
			"stateMutability": "nonpayable",
			"type": "constructor"
		},
		{
			"anonymous": false,
			"inputs": [
				{
					"indexed": true,
					"internalType": "address",
					"name": "from",
					"type": "address"
				},
				{
					"indexed": false,
					"internalType": "uint256",
					"name": "timestamp",
					"type": "uint256"
				},
				{
					"indexed": false,
					"internalType": "uint256",
					"name": "points",
					"type": "uint256"
				},
				{
					"indexed": false,
					"internalType": "string",
					"name": "name",
					"type": "string"
				}
			],
			"name": "NewScore",
			"type": "event"
		},
		{
			"inputs": [],
			"name": "getAllScores",
			"outputs": [
				{
					"components": [
						{
							"internalType": "address",
							"name": "from",
							"type": "address"
						},
						{
							"internalType": "uint256",
							"name": "datetime",
							"type": "uint256"
						},
						{
							"internalType": "uint256",
							"name": "points",
							"type": "uint256"
						},
						{
							"internalType": "string",
							"name": "name",
							"type": "string"
						}
					],
					"internalType": "struct GameRanking.Score[]",
					"name": "",
					"type": "tuple[]"
				}
			],
			"stateMutability": "view",
			"type": "function"
		},
		{
			"inputs": [],
			"name": "getTotalScores",
			"outputs": [
				{
					"internalType": "uint256",
					"name": "",
					"type": "uint256"
				}
			],
			"stateMutability": "view",
			"type": "function"
		},
		{
			"inputs": [
				{
					"internalType": "uint256",
					"name": "_points",
					"type": "uint256"
				},
				{
					"internalType": "string",
					"name": "_name",
					"type": "string"
				}
			],
			"name": "saveScore",
			"outputs": [],
			"stateMutability": "nonpayable",
			"type": "function"
		}
	],
	"bytecode": "0x60806040523480156200001157600080fd5b506200005d6040518060400160405280600581526020017f59617979790000000000000000000000000000000000000000000000000000008152506200006360201b620004c51760201c565b620001f7565b62000103816040516024016200007a919062000170565b6040516020818303038152906040527f41304fac000000000000000000000000000000000000000000000000000000007bffffffffffffffffffffffffffffffffffffffffffffffffffffffff19166020820180517bffffffffffffffffffffffffffffffffffffffffffffffffffffffff83818316178352505050506200010660201b60201c565b50565b60008151905060006a636f6e736f6c652e6c6f679050602083016000808483855afa5050505050565b60006200013c8262000194565b6200014881856200019f565b93506200015a818560208601620001b0565b6200016581620001e6565b840191505092915050565b600060208201905081810360008301526200018c81846200012f565b905092915050565b600081519050919050565b600082825260208201905092915050565b60005b83811015620001d0578082015181840152602081019050620001b3565b83811115620001e0576000848401525b50505050565b6000601f19601f8301169050919050565b610ea680620002076000396000f3fe608060405234801561001057600080fd5b50600436106100415760003560e01c8063864949b21461004657806387d06196146100625780639471676c14610080575b600080fd5b610060600480360381019061005b919061087e565b61009e565b005b61006a61033c565b6040516100779190610a6c565b60405180910390f35b610088610497565b6040516100959190610b4e565b60405180910390f35b6100dd6040518060400160405280601581526020017f2573206861732066696e69736865642067616d652100000000000000000000008152503361055e565b600160405180608001604052803373ffffffffffffffffffffffffffffffffffffffff16815260200142815260200184815260200183815250908060018154018082558091505060019003906000526020600020906004020160009091909190915060008201518160000160006101000a81548173ffffffffffffffffffffffffffffffffffffffff021916908373ffffffffffffffffffffffffffffffffffffffff160217905550602082015181600101556040820151816002015560608201518160030190805190602001906101b692919061075e565b50505060016000808282546101cb9190610c63565b925050819055506001600260003373ffffffffffffffffffffffffffffffffffffffff1673ffffffffffffffffffffffffffffffffffffffff16815260200190815260200160002060008282546102229190610c63565b925050819055506102a86040518060400160405280601e81526020017f4e756d626572206f662073636f72657320666f72202573203a2025732020000081525033600260003373ffffffffffffffffffffffffffffffffffffffff1673ffffffffffffffffffffffffffffffffffffffff168152602001908152602001600020546105fa565b3373ffffffffffffffffffffffffffffffffffffffff167f0f1d512ad87cdfe649de0aef61e72b5e6e2bd1ea9d17feef66d90b1d8f04bf034284846040516102f293929190610b69565b60405180910390a26103386040518060400160405280601181526020017f416c6c53636f72657320757064617465640000000000000000000000000000008152506104c5565b5050565b60606001805480602002602001604051908101604052809291908181526020016000905b8282101561048e57838290600052602060002090600402016040518060800160405290816000820160009054906101000a900473ffffffffffffffffffffffffffffffffffffffff1673ffffffffffffffffffffffffffffffffffffffff1673ffffffffffffffffffffffffffffffffffffffff16815260200160018201548152602001600282015481526020016003820180546103fd90610d37565b80601f016020809104026020016040519081016040528092919081815260200182805461042990610d37565b80156104765780601f1061044b57610100808354040283529160200191610476565b820191906000526020600020905b81548152906001019060200180831161045957829003601f168201915b50505050508152505081526020019060010190610360565b50505050905090565b60006104bd604051806060016040528060218152602001610e5060219139600054610699565b600054905090565b61055b816040516024016104d99190610a8e565b6040516020818303038152906040527f41304fac000000000000000000000000000000000000000000000000000000007bffffffffffffffffffffffffffffffffffffffffffffffffffffffff19166020820180517bffffffffffffffffffffffffffffffffffffffffffffffffffffffff8381831617835250505050610735565b50565b6105f68282604051602401610574929190610ab0565b6040516020818303038152906040527f319af333000000000000000000000000000000000000000000000000000000007bffffffffffffffffffffffffffffffffffffffffffffffffffffffff19166020820180517bffffffffffffffffffffffffffffffffffffffffffffffffffffffff8381831617835250505050610735565b5050565b61069483838360405160240161061293929190610ae0565b6040516020818303038152906040527f07c81217000000000000000000000000000000000000000000000000000000007bffffffffffffffffffffffffffffffffffffffffffffffffffffffff19166020820180517bffffffffffffffffffffffffffffffffffffffffffffffffffffffff8381831617835250505050610735565b505050565b61073182826040516024016106af929190610b1e565b6040516020818303038152906040527f9710a9d0000000000000000000000000000000000000000000000000000000007bffffffffffffffffffffffffffffffffffffffffffffffffffffffff19166020820180517bffffffffffffffffffffffffffffffffffffffffffffffffffffffff8381831617835250505050610735565b5050565b60008151905060006a636f6e736f6c652e6c6f679050602083016000808483855afa5050505050565b82805461076a90610d37565b90600052602060002090601f01602090048101928261078c57600085556107d3565b82601f106107a557805160ff19168380011785556107d3565b828001600101855582156107d3579182015b828111156107d25782518255916020019190600101906107b7565b5b5090506107e091906107e4565b5090565b5b808211156107fd5760008160009055506001016107e5565b5090565b600061081461080f84610bcc565b610ba7565b90508281526020810184848401111561082c57600080fd5b610837848285610cf5565b509392505050565b600082601f83011261085057600080fd5b8135610860848260208601610801565b91505092915050565b60008135905061087881610e38565b92915050565b6000806040838503121561089157600080fd5b600061089f85828601610869565b925050602083013567ffffffffffffffff8111156108bc57600080fd5b6108c88582860161083f565b9150509250929050565b60006108de83836109eb565b905092915050565b6108ef81610cb9565b82525050565b6108fe81610cb9565b82525050565b600061090f82610c0d565b6109198185610c30565b93508360208202850161092b85610bfd565b8060005b85811015610967578484038952815161094885826108d2565b945061095383610c23565b925060208a0199505060018101905061092f565b50829750879550505050505092915050565b600061098482610c18565b61098e8185610c41565b935061099e818560208601610d04565b6109a781610e27565b840191505092915050565b60006109bd82610c18565b6109c78185610c52565b93506109d7818560208601610d04565b6109e081610e27565b840191505092915050565b6000608083016000830151610a0360008601826108e6565b506020830151610a166020860182610a4e565b506040830151610a296040860182610a4e565b5060608301518482036060860152610a418282610979565b9150508091505092915050565b610a5781610ceb565b82525050565b610a6681610ceb565b82525050565b60006020820190508181036000830152610a868184610904565b905092915050565b60006020820190508181036000830152610aa881846109b2565b905092915050565b60006040820190508181036000830152610aca81856109b2565b9050610ad960208301846108f5565b9392505050565b60006060820190508181036000830152610afa81866109b2565b9050610b0960208301856108f5565b610b166040830184610a5d565b949350505050565b60006040820190508181036000830152610b3881856109b2565b9050610b476020830184610a5d565b9392505050565b6000602082019050610b636000830184610a5d565b92915050565b6000606082019050610b7e6000830186610a5d565b610b8b6020830185610a5d565b8181036040830152610b9d81846109b2565b9050949350505050565b6000610bb1610bc2565b9050610bbd8282610d69565b919050565b6000604051905090565b600067ffffffffffffffff821115610be757610be6610df8565b5b610bf082610e27565b9050602081019050919050565b6000819050602082019050919050565b600081519050919050565b600081519050919050565b6000602082019050919050565b600082825260208201905092915050565b600082825260208201905092915050565b600082825260208201905092915050565b6000610c6e82610ceb565b9150610c7983610ceb565b9250827fffffffffffffffffffffffffffffffffffffffffffffffffffffffffffffffff03821115610cae57610cad610d9a565b5b828201905092915050565b6000610cc482610ccb565b9050919050565b600073ffffffffffffffffffffffffffffffffffffffff82169050919050565b6000819050919050565b82818337600083830152505050565b60005b83811015610d22578082015181840152602081019050610d07565b83811115610d31576000848401525b50505050565b60006002820490506001821680610d4f57607f821691505b60208210811415610d6357610d62610dc9565b5b50919050565b610d7282610e27565b810181811067ffffffffffffffff82111715610d9157610d90610df8565b5b80604052505050565b7f4e487b7100000000000000000000000000000000000000000000000000000000600052601160045260246000fd5b7f4e487b7100000000000000000000000000000000000000000000000000000000600052602260045260246000fd5b7f4e487b7100000000000000000000000000000000000000000000000000000000600052604160045260246000fd5b6000601f19601f8301169050919050565b610e4181610ceb565b8114610e4c57600080fd5b5056fe576520686176652025642073636f72657320696e2047616d6552616e6b696e6721a2646970667358221220dddad1b420eb3d6847bbd9e6d3684067485b0e717fad57aeceb904bdc908b58664736f6c63430008040033",
	"linkReferences": {},
	"deployedLinkReferences": {}
}